{
  "address": "0xCb99A5FbF231446d1700C0aA8D1Ce329b372b426",
  "abi": [
    {
      "inputs": [
        {
          "internalType": "uint256[]",
          "name": "amounts",
          "type": "uint256[]"
        },
        {
          "internalType": "contract IERC20",
          "name": "token",
          "type": "address"
        }
      ],
      "name": "combineMultiple",
      "outputs": [],
      "stateMutability": "nonpayable",
      "type": "function"
    },
    {
      "inputs": [
        {
          "internalType": "uint256",
          "name": "amount",
          "type": "uint256"
        },
        {
          "internalType": "contract IERC20",
          "name": "token",
          "type": "address"
        }
      ],
      "name": "stabilize",
      "outputs": [],
      "stateMutability": "nonpayable",
      "type": "function"
    },
    {
      "inputs": [
        {
          "internalType": "uint256[]",
          "name": "amounts",
          "type": "uint256[]"
        },
        {
          "internalType": "uint256",
          "name": "balance",
          "type": "uint256"
        },
        {
          "internalType": "contract IERC20",
          "name": "token",
          "type": "address"
        }
      ],
      "name": "stabilizeMultiple",
      "outputs": [],
      "stateMutability": "nonpayable",
      "type": "function"
    }
  ],
  "transactionHash": "0x498a040cf6b1c8b4cb556daeaa7b862b49791928f911b58a59ebc68ea0ca8e56",
  "args": [],
  "numDeployments": 1,
  "solcInputHash": "d76030b2e27893c2e716dfcd89b6b269",
  "bytecode": "0x608060405234801561001057600080fd5b506107a6806100206000396000f3fe608060405234801561001057600080fd5b50600436106100415760003560e01c806366fb9e30146100465780637dc54a871461005b578063c575e0b41461006e575b600080fd5b6100596100543660046105d5565b610081565b005b610059610069366004610632565b610379565b61005961007c366004610686565b61047e565b6040516323b872dd60e01b815233906001600160a01b038316906323b872dd906100b3908490309088906004016106b2565b6020604051808303816000875af11580156100d2573d6000803e3d6000fd5b505050506040513d601f19601f820116820180604052508101906100f691906106d6565b5060005b848110156102fc57826001600160a01b031663a9059cbb83888885818110610124576101246106ff565b6040516001600160e01b031960e087901b1681526001600160a01b03909416600485015260200291909101356024830152506044016020604051808303816000875af1158015610178573d6000803e3d6000fd5b505050506040513d601f19601f8201168201806040525081019061019c91906106d6565b50826001600160a01b03166323b872dd83308989868181106101c0576101c06106ff565b905060200201356040518463ffffffff1660e01b81526004016101e5939291906106b2565b6020604051808303816000875af1158015610204573d6000803e3d6000fd5b505050506040513d601f19601f8201168201806040525081019061022891906106d6565b50826001600160a01b031663a9059cbb8388888581811061024b5761024b6106ff565b6040516001600160e01b031960e087901b1681526001600160a01b03909416600485015260200291909101356024830152506044016020604051808303816000875af115801561029f573d6000803e3d6000fd5b505050506040513d601f19601f820116820180604052508101906102c391906106d6565b508585828181106102d6576102d66106ff565b90506020020135846102e8919061072b565b9350806102f481610744565b9150506100fa565b5060405163a9059cbb60e01b81526001600160a01b0382811660048301526024820185905283169063a9059cbb906044015b6020604051808303816000875af115801561034d573d6000803e3d6000fd5b505050506040513d601f19601f8201168201806040525081019061037191906106d6565b505050505050565b336000805b8481101561044a57836001600160a01b03166323b872dd84308989868181106103a9576103a96106ff565b905060200201356040518463ffffffff1660e01b81526004016103ce939291906106b2565b6020604051808303816000875af11580156103ed573d6000803e3d6000fd5b505050506040513d601f19601f8201168201806040525081019061041191906106d6565b50858582818110610424576104246106ff565b9050602002013582610436919061075d565b91508061044281610744565b91505061037e565b5060405163a9059cbb60e01b8152336004820152602481018290526001600160a01b0384169063a9059cbb9060440161032e565b6040516323b872dd60e01b815233906001600160a01b038316906323b872dd906104b0908490309088906004016106b2565b6020604051808303816000875af11580156104cf573d6000803e3d6000fd5b505050506040513d601f19601f820116820180604052508101906104f391906106d6565b5060405163a9059cbb60e01b81526001600160a01b0382811660048301526024820185905283169063a9059cbb906044016020604051808303816000875af1158015610543573d6000803e3d6000fd5b505050506040513d601f19601f8201168201806040525081019061056791906106d6565b50505050565b60008083601f84011261057f57600080fd5b50813567ffffffffffffffff81111561059757600080fd5b6020830191508360208260051b85010111156105b257600080fd5b9250929050565b80356001600160a01b03811681146105d057600080fd5b919050565b600080600080606085870312156105eb57600080fd5b843567ffffffffffffffff81111561060257600080fd5b61060e8782880161056d565b90955093505060208501359150610627604086016105b9565b905092959194509250565b60008060006040848603121561064757600080fd5b833567ffffffffffffffff81111561065e57600080fd5b61066a8682870161056d565b909450925061067d9050602085016105b9565b90509250925092565b6000806040838503121561069957600080fd5b823591506106a9602084016105b9565b90509250929050565b6001600160a01b039384168152919092166020820152604081019190915260600190565b6000602082840312156106e857600080fd5b815180151581146106f857600080fd5b9392505050565b634e487b7160e01b600052603260045260246000fd5b634e487b7160e01b600052601160045260246000fd5b8181038181111561073e5761073e610715565b92915050565b60006001820161075657610756610715565b5060010190565b8082018082111561073e5761073e61071556fea2646970667358221220878a39a9eae822bcc3ee63009b9ea85c48e2fccfd544fd2109467203afe2956f64736f6c63430008110033",
  "devdoc": {
    "kind": "dev",
    "methods": {},
    "version": 1
  },
  "userdoc": {
    "kind": "user",
    "methods": {},
    "version": 1
  },
  "storageLayout": {
    "storage": [],
    "types": null
  }
}