{
  "address": "0xd5951148a8D6C681Dc0A18A69008f778Fa93CD1B",
  "abi": [
    {
      "inputs": [
        {
          "internalType": "address",
          "name": "_owner",
          "type": "address"
        }
      ],
      "stateMutability": "nonpayable",
      "type": "constructor"
    },
    {
      "anonymous": false,
      "inputs": [
        {
          "indexed": true,
          "internalType": "address",
          "name": "owner",
          "type": "address"
        },
        {
          "indexed": true,
          "internalType": "address",
          "name": "spender",
          "type": "address"
        },
        {
          "indexed": false,
          "internalType": "uint256",
          "name": "value",
          "type": "uint256"
        }
      ],
      "name": "Approval",
      "type": "event"
    },
    {
      "anonymous": false,
      "inputs": [
        {
          "indexed": true,
          "internalType": "address",
          "name": "account",
          "type": "address"
        },
        {
          "indexed": false,
          "internalType": "bool",
          "name": "value",
          "type": "bool"
        }
      ],
      "name": "ExcludeFromLimits",
      "type": "event"
    },
    {
      "anonymous": false,
      "inputs": [],
      "name": "Launch",
      "type": "event"
    },
    {
      "anonymous": false,
      "inputs": [
        {
          "indexed": true,
          "internalType": "address",
          "name": "previousOwner",
          "type": "address"
        },
        {
          "indexed": true,
          "internalType": "address",
          "name": "newOwner",
          "type": "address"
        }
      ],
      "name": "OwnershipTransferStarted",
      "type": "event"
    },
    {
      "anonymous": false,
      "inputs": [
        {
          "indexed": true,
          "internalType": "address",
          "name": "previousOwner",
          "type": "address"
        },
        {
          "indexed": true,
          "internalType": "address",
          "name": "newOwner",
          "type": "address"
        }
      ],
      "name": "OwnershipTransferred",
      "type": "event"
    },
    {
      "anonymous": false,
      "inputs": [
        {
          "indexed": true,
          "internalType": "address",
          "name": "from",
          "type": "address"
        },
        {
          "indexed": true,
          "internalType": "address",
          "name": "to",
          "type": "address"
        },
        {
          "indexed": false,
          "internalType": "uint256",
          "name": "value",
          "type": "uint256"
        }
      ],
      "name": "Transfer",
      "type": "event"
    },
    {
      "inputs": [],
      "name": "acceptOwnership",
      "outputs": [],
      "stateMutability": "nonpayable",
      "type": "function"
    },
    {
      "inputs": [
        {
          "internalType": "address",
          "name": "owner",
          "type": "address"
        },
        {
          "internalType": "address",
          "name": "spender",
          "type": "address"
        }
      ],
      "name": "allowance",
      "outputs": [
        {
          "internalType": "uint256",
          "name": "",
          "type": "uint256"
        }
      ],
      "stateMutability": "view",
      "type": "function"
    },
    {
      "inputs": [
        {
          "internalType": "address",
          "name": "spender",
          "type": "address"
        },
        {
          "internalType": "uint256",
          "name": "amount",
          "type": "uint256"
        }
      ],
      "name": "approve",
      "outputs": [
        {
          "internalType": "bool",
          "name": "",
          "type": "bool"
        }
      ],
      "stateMutability": "nonpayable",
      "type": "function"
    },
    {
      "inputs": [
        {
          "internalType": "address",
          "name": "account",
          "type": "address"
        }
      ],
      "name": "balanceOf",
      "outputs": [
        {
          "internalType": "uint256",
          "name": "",
          "type": "uint256"
        }
      ],
      "stateMutability": "view",
      "type": "function"
    },
    {
      "inputs": [
        {
          "internalType": "uint256",
          "name": "amount",
          "type": "uint256"
        }
      ],
      "name": "burn",
      "outputs": [],
      "stateMutability": "nonpayable",
      "type": "function"
    },
    {
      "inputs": [],
      "name": "decimals",
      "outputs": [
        {
          "internalType": "uint8",
          "name": "",
          "type": "uint8"
        }
      ],
      "stateMutability": "view",
      "type": "function"
    },
    {
      "inputs": [
        {
          "internalType": "address",
          "name": "spender",
          "type": "address"
        },
        {
          "internalType": "uint256",
          "name": "subtractedValue",
          "type": "uint256"
        }
      ],
      "name": "decreaseAllowance",
      "outputs": [
        {
          "internalType": "bool",
          "name": "",
          "type": "bool"
        }
      ],
      "stateMutability": "nonpayable",
      "type": "function"
    },
    {
      "inputs": [
        {
          "internalType": "address[]",
          "name": "accounts",
          "type": "address[]"
        },
        {
          "internalType": "bool",
          "name": "value",
          "type": "bool"
        }
      ],
      "name": "excludeFromLimits",
      "outputs": [],
      "stateMutability": "nonpayable",
      "type": "function"
    },
    {
      "inputs": [
        {
          "internalType": "address",
          "name": "spender",
          "type": "address"
        },
        {
          "internalType": "uint256",
          "name": "addedValue",
          "type": "uint256"
        }
      ],
      "name": "increaseAllowance",
      "outputs": [
        {
          "internalType": "bool",
          "name": "",
          "type": "bool"
        }
      ],
      "stateMutability": "nonpayable",
      "type": "function"
    },
    {
      "inputs": [
        {
          "internalType": "address",
          "name": "",
          "type": "address"
        }
      ],
      "name": "isBot",
      "outputs": [
        {
          "internalType": "bool",
          "name": "",
          "type": "bool"
        }
      ],
      "stateMutability": "view",
      "type": "function"
    },
    {
      "inputs": [
        {
          "internalType": "address",
          "name": "",
          "type": "address"
        }
      ],
      "name": "isExcludedFromLimits",
      "outputs": [
        {
          "internalType": "bool",
          "name": "",
          "type": "bool"
        }
      ],
      "stateMutability": "view",
      "type": "function"
    },
    {
      "inputs": [],
      "name": "launch",
      "outputs": [],
      "stateMutability": "nonpayable",
      "type": "function"
    },
    {
      "inputs": [],
      "name": "launched",
      "outputs": [
        {
          "internalType": "bool",
          "name": "",
          "type": "bool"
        }
      ],
      "stateMutability": "view",
      "type": "function"
    },
    {
      "inputs": [],
      "name": "name",
      "outputs": [
        {
          "internalType": "string",
          "name": "",
          "type": "string"
        }
      ],
      "stateMutability": "view",
      "type": "function"
    },
    {
      "inputs": [],
      "name": "owner",
      "outputs": [
        {
          "internalType": "address",
          "name": "",
          "type": "address"
        }
      ],
      "stateMutability": "view",
      "type": "function"
    },
    {
      "inputs": [],
      "name": "pendingOwner",
      "outputs": [
        {
          "internalType": "address",
          "name": "",
          "type": "address"
        }
      ],
      "stateMutability": "view",
      "type": "function"
    },
    {
      "inputs": [],
      "name": "renounceOwnership",
      "outputs": [],
      "stateMutability": "nonpayable",
      "type": "function"
    },
    {
      "inputs": [
        {
          "internalType": "address[]",
          "name": "accounts",
          "type": "address[]"
        },
        {
          "internalType": "bool",
          "name": "value",
          "type": "bool"
        }
      ],
      "name": "setBots",
      "outputs": [],
      "stateMutability": "nonpayable",
      "type": "function"
    },
    {
      "inputs": [],
      "name": "symbol",
      "outputs": [
        {
          "internalType": "string",
          "name": "",
          "type": "string"
        }
      ],
      "stateMutability": "view",
      "type": "function"
    },
    {
      "inputs": [],
      "name": "totalSupply",
      "outputs": [
        {
          "internalType": "uint256",
          "name": "",
          "type": "uint256"
        }
      ],
      "stateMutability": "view",
      "type": "function"
    },
    {
      "inputs": [
        {
          "internalType": "address",
          "name": "to",
          "type": "address"
        },
        {
          "internalType": "uint256",
          "name": "amount",
          "type": "uint256"
        }
      ],
      "name": "transfer",
      "outputs": [
        {
          "internalType": "bool",
          "name": "",
          "type": "bool"
        }
      ],
      "stateMutability": "nonpayable",
      "type": "function"
    },
    {
      "inputs": [
        {
          "internalType": "address",
          "name": "from",
          "type": "address"
        },
        {
          "internalType": "address",
          "name": "to",
          "type": "address"
        },
        {
          "internalType": "uint256",
          "name": "amount",
          "type": "uint256"
        }
      ],
      "name": "transferFrom",
      "outputs": [
        {
          "internalType": "bool",
          "name": "",
          "type": "bool"
        }
      ],
      "stateMutability": "nonpayable",
      "type": "function"
    },
    {
      "inputs": [
        {
          "internalType": "address",
          "name": "newOwner",
          "type": "address"
        }
      ],
      "name": "transferOwnership",
      "outputs": [],
      "stateMutability": "nonpayable",
      "type": "function"
    }
  ],
  "transactionHash": "0x664e2ed7b5244faf6cdcd948090e72c5a5e7bd8575da1e8cb249c562f4afcb17",
  "args": [
    "0x927f38D586F69EB9BF5Bf9B333751D4656DcdF7a"
  ],
  "numDeployments": 1,
  "solcInputHash": "005efaea52e341ab8a4cf08296bdd4ae",
  "bytecode": "0x60806040523480156200001157600080fd5b5060405162001822380380620018228339810160408190526200003491620004e3565b6040518060400160405280600c81526020016b151154d5119550d2c913155560a21b81525060405180604001604052806009815260200168151154d51194d3155560ba1b815250620000956200008f6200013c60201b60201c565b62000140565b6005620000a38382620005b9565b506006620000b28282620005b9565b5050506000620000c76200013c60201b60201c565b9050620000d48262000140565b620000e18160016200016a565b620000ee8260016200016a565b620000fb3060016200016a565b6200011c733d4e44eb1374240ce5f1b871ab261cd16335b76a60016200016a565b62000134826b168532bdc48cb0ddb5840000620001c9565b5050620006ad565b3390565b600180546001600160a01b03191690556200016781620002a0602090811b6200075d17901c565b50565b6001600160a01b038216600081815260096020908152604091829020805460ff191685151590811790915591519182527f4b89c347592b1d537e066cb4ed98d87696ae35164745d7e370e4add16941dc92910160405180910390a25050565b6001600160a01b038216620002255760405162461bcd60e51b815260206004820152601f60248201527f45524332303a206d696e7420746f20746865207a65726f20616464726573730060448201526064015b60405180910390fd5b6200023360008383620002f0565b806004600082825462000247919062000685565b90915550506001600160a01b0382166000818152600260209081526040808320805486019055518481527fddf252ad1be2c89b69c2b068fc378daa952ba7f163c4a11628f55a4df523b3ef910160405180910390a35050565b600080546001600160a01b038381166001600160a01b0319831681178455604051919092169283917f8be0079c531659141344cd1fd0a4f28419497f9722a3daafe3b4186f6b6457e09190a35050565b6001600160a01b038316600090815260086020526040902054339060ff16156200034c5760405162461bcd60e51b815260206004820152601660248201526000805160206200180283398151915260448201526064016200021c565b836001600160a01b0316816001600160a01b031614806200038657506001600160a01b03811660009081526008602052604090205460ff16155b620003c35760405162461bcd60e51b815260206004820152601660248201526000805160206200180283398151915260448201526064016200021c565b326001600160a01b0385161480620003e35750326001600160a01b038216145b80620003ff57503260009081526008602052604090205460ff16155b6200043c5760405162461bcd60e51b815260206004820152601660248201526000805160206200180283398151915260448201526064016200021c565b60075460ff16806200046657506001600160a01b03841660009081526009602052604090205460ff165b806200048a57506001600160a01b03831660009081526009602052604090205460ff165b620004d85760405162461bcd60e51b815260206004820152601760248201527f4655434b534c55543a206e6f74206c61756e636865642e00000000000000000060448201526064016200021c565b50505050565b505050565b600060208284031215620004f657600080fd5b81516001600160a01b03811681146200050e57600080fd5b9392505050565b634e487b7160e01b600052604160045260246000fd5b600181811c908216806200054057607f821691505b6020821081036200056157634e487b7160e01b600052602260045260246000fd5b50919050565b601f821115620004de57600081815260208120601f850160051c81016020861015620005905750805b601f850160051c820191505b81811015620005b1578281556001016200059c565b505050505050565b81516001600160401b03811115620005d557620005d562000515565b620005ed81620005e684546200052b565b8462000567565b602080601f8311600181146200062557600084156200060c5750858301515b600019600386901b1c1916600185901b178555620005b1565b600085815260208120601f198616915b82811015620006565788860151825594840194600190910190840162000635565b5085821015620006755787850151600019600388901b60f8161c191681555b5050505050600190811b01905550565b80820180821115620006a757634e487b7160e01b600052601160045260246000fd5b92915050565b61114580620006bd6000396000f3fe608060405234801561001057600080fd5b506004361061014d5760003560e01c806370a08231116100c35780639c0db5f31161007c5780639c0db5f3146102c3578063a457c2d7146102d6578063a9059cbb146102e9578063dd62ed3e146102fc578063e30c39781461030f578063f2fde38b1461032057600080fd5b806370a0823114610250578063715018a61461027957806379ba5097146102815780638091f3bf146102895780638da5cb5b1461029657806395d89b41146102bb57600080fd5b806323b872dd1161011557806323b872dd146101c2578063313ce567146101d557806339509351146101e45780633bbac579146101f757806342966c681461021a5780635cce86cd1461022d57600080fd5b806301339c211461015257806306fdde031461015c578063095ea7b31461017a578063106a5a8f1461019d57806318160ddd146101b0575b600080fd5b61015a610333565b005b6101646103cb565b6040516101719190610e84565b60405180910390f35b61018d610188366004610eee565b61045d565b6040519015158152602001610171565b61015a6101ab366004610f18565b610477565b6004545b604051908152602001610171565b61018d6101d0366004610fa3565b6104d2565b60405160128152602001610171565b61018d6101f2366004610eee565b6104f6565b61018d610205366004610fdf565b60086020526000908152604090205460ff1681565b61015a610228366004611001565b610518565b61018d61023b366004610fdf565b60096020526000908152604090205460ff1681565b6101b461025e366004610fdf565b6001600160a01b031660009081526002602052604090205490565b61015a610525565b61015a610539565b60075461018d9060ff1681565b6000546001600160a01b03165b6040516001600160a01b039091168152602001610171565b6101646105b0565b61015a6102d1366004610f18565b6105bf565b61018d6102e4366004610eee565b610638565b61018d6102f7366004610eee565b6106b3565b6101b461030a36600461101a565b6106c1565b6001546001600160a01b03166102a3565b61015a61032e366004610fdf565b6106ec565b61033b6107ad565b60075460ff16156103935760405162461bcd60e51b815260206004820152601b60248201527f4655434b534c55543a20416c7265616479206c61756e636865642e000000000060448201526064015b60405180910390fd5b6007805460ff191660011790556040517f02ac8168caf2f254b394bd39e19417c5c28124ab89c9bc2d44921b19808e266990600090a1565b6060600580546103da9061104d565b80601f01602080910402602001604051908101604052809291908181526020018280546104069061104d565b80156104535780601f1061042857610100808354040283529160200191610453565b820191906000526020600020905b81548152906001019060200180831161043657829003601f168201915b5050505050905090565b60003361046b818585610807565b60019150505b92915050565b61047f6107ad565b60005b828110156104cc576104ba84848381811061049f5761049f611087565b90506020020160208101906104b49190610fdf565b8361092c565b806104c4816110b3565b915050610482565b50505050565b6000336104e085828561098b565b6104eb8585856109ff565b506001949350505050565b60003361046b81858561050983836106c1565b61051391906110cc565b610807565b6105223382610bb5565b50565b61052d6107ad565b6105376000610ced565b565b60015433906001600160a01b031681146105a75760405162461bcd60e51b815260206004820152602960248201527f4f776e61626c6532537465703a2063616c6c6572206973206e6f7420746865206044820152683732bb9037bbb732b960b91b606482015260840161038a565b61052281610ced565b6060600680546103da9061104d565b6105c76107ad565b60005b828110156104cc5781600860008686858181106105e9576105e9611087565b90506020020160208101906105fe9190610fdf565b6001600160a01b031681526020810191909152604001600020805460ff191691151591909117905580610630816110b3565b9150506105ca565b6000338161064682866106c1565b9050838110156106a65760405162461bcd60e51b815260206004820152602560248201527f45524332303a2064656372656173656420616c6c6f77616e63652062656c6f77604482015264207a65726f60d81b606482015260840161038a565b6104eb8286868403610807565b60003361046b8185856109ff565b6001600160a01b03918216600090815260036020908152604080832093909416825291909152205490565b6106f46107ad565b600180546001600160a01b0383166001600160a01b031990911681179091556107256000546001600160a01b031690565b6001600160a01b03167f38d16b8cac22d99fc7c124b9cd0de2d3fa1faef420bfe791d8c362d765e2270060405160405180910390a350565b600080546001600160a01b038381166001600160a01b0319831681178455604051919092169283917f8be0079c531659141344cd1fd0a4f28419497f9722a3daafe3b4186f6b6457e09190a35050565b6000546001600160a01b031633146105375760405162461bcd60e51b815260206004820181905260248201527f4f776e61626c653a2063616c6c6572206973206e6f7420746865206f776e6572604482015260640161038a565b6001600160a01b0383166108695760405162461bcd60e51b8152602060048201526024808201527f45524332303a20617070726f76652066726f6d20746865207a65726f206164646044820152637265737360e01b606482015260840161038a565b6001600160a01b0382166108ca5760405162461bcd60e51b815260206004820152602260248201527f45524332303a20617070726f766520746f20746865207a65726f206164647265604482015261737360f01b606482015260840161038a565b6001600160a01b0383811660008181526003602090815260408083209487168084529482529182902085905590518481527f8c5be1e5ebec7d5bd14f71427d1e84f3dd0314c0f7b2291e5b200ac8c7c3b92591015b60405180910390a3505050565b6001600160a01b038216600081815260096020908152604091829020805460ff191685151590811790915591519182527f4b89c347592b1d537e066cb4ed98d87696ae35164745d7e370e4add16941dc92910160405180910390a25050565b600061099784846106c1565b905060001981146104cc57818110156109f25760405162461bcd60e51b815260206004820152601d60248201527f45524332303a20696e73756666696369656e7420616c6c6f77616e6365000000604482015260640161038a565b6104cc8484848403610807565b6001600160a01b038316610a635760405162461bcd60e51b815260206004820152602560248201527f45524332303a207472616e736665722066726f6d20746865207a65726f206164604482015264647265737360d81b606482015260840161038a565b6001600160a01b038216610ac55760405162461bcd60e51b815260206004820152602360248201527f45524332303a207472616e7366657220746f20746865207a65726f206164647260448201526265737360e81b606482015260840161038a565b610ad0838383610d06565b6001600160a01b03831660009081526002602052604090205481811015610b485760405162461bcd60e51b815260206004820152602660248201527f45524332303a207472616e7366657220616d6f756e7420657863656564732062604482015265616c616e636560d01b606482015260840161038a565b6001600160a01b0380851660008181526002602052604080822086860390559286168082529083902080548601905591517fddf252ad1be2c89b69c2b068fc378daa952ba7f163c4a11628f55a4df523b3ef90610ba89086815260200190565b60405180910390a36104cc565b6001600160a01b038216610c155760405162461bcd60e51b815260206004820152602160248201527f45524332303a206275726e2066726f6d20746865207a65726f206164647265736044820152607360f81b606482015260840161038a565b610c2182600083610d06565b6001600160a01b03821660009081526002602052604090205481811015610c955760405162461bcd60e51b815260206004820152602260248201527f45524332303a206275726e20616d6f756e7420657863656564732062616c616e604482015261636560f01b606482015260840161038a565b6001600160a01b03831660008181526002602090815260408083208686039055600480548790039055518581529192917fddf252ad1be2c89b69c2b068fc378daa952ba7f163c4a11628f55a4df523b3ef910161091f565b600180546001600160a01b03191690556105228161075d565b6001600160a01b038316600090815260086020526040902054339060ff1615610d415760405162461bcd60e51b815260040161038a906110df565b836001600160a01b0316816001600160a01b03161480610d7a57506001600160a01b03811660009081526008602052604090205460ff16155b610d965760405162461bcd60e51b815260040161038a906110df565b326001600160a01b0385161480610db55750326001600160a01b038216145b80610dd057503260009081526008602052604090205460ff16155b610dec5760405162461bcd60e51b815260040161038a906110df565b60075460ff1680610e1557506001600160a01b03841660009081526009602052604090205460ff165b80610e3857506001600160a01b03831660009081526009602052604090205460ff165b6104cc5760405162461bcd60e51b815260206004820152601760248201527f4655434b534c55543a206e6f74206c61756e636865642e000000000000000000604482015260640161038a565b600060208083528351808285015260005b81811015610eb157858101830151858201604001528201610e95565b506000604082860101526040601f19601f8301168501019250505092915050565b80356001600160a01b0381168114610ee957600080fd5b919050565b60008060408385031215610f0157600080fd5b610f0a83610ed2565b946020939093013593505050565b600080600060408486031215610f2d57600080fd5b833567ffffffffffffffff80821115610f4557600080fd5b818601915086601f830112610f5957600080fd5b813581811115610f6857600080fd5b8760208260051b8501011115610f7d57600080fd5b602092830195509350508401358015158114610f9857600080fd5b809150509250925092565b600080600060608486031215610fb857600080fd5b610fc184610ed2565b9250610fcf60208501610ed2565b9150604084013590509250925092565b600060208284031215610ff157600080fd5b610ffa82610ed2565b9392505050565b60006020828403121561101357600080fd5b5035919050565b6000806040838503121561102d57600080fd5b61103683610ed2565b915061104460208401610ed2565b90509250929050565b600181811c9082168061106157607f821691505b60208210810361108157634e487b7160e01b600052602260045260246000fd5b50919050565b634e487b7160e01b600052603260045260246000fd5b634e487b7160e01b600052601160045260246000fd5b6000600182016110c5576110c561109d565b5060010190565b808201808211156104715761047161109d565b602080825260169082015275119550d2d4d315550e88189bdd0819195d1958dd195960521b60408201526060019056fea2646970667358221220db04dfe40c8db5b87da13e6b40ce568f4a2d4c33f30bfd50851f0c80db62c44a64736f6c634300081100334655434b534c55543a20626f7420646574656374656400000000000000000000",
  "devdoc": {
    "kind": "dev",
    "methods": {
      "acceptOwnership()": {
        "details": "The new owner accepts the ownership transfer."
      },
      "allowance(address,address)": {
        "details": "See {IERC20-allowance}."
      },
      "approve(address,uint256)": {
        "details": "See {IERC20-approve}. NOTE: If `amount` is the maximum `uint256`, the allowance is not updated on `transferFrom`. This is semantically equivalent to an infinite approval. Requirements: - `spender` cannot be the zero address."
      },
      "balanceOf(address)": {
        "details": "See {IERC20-balanceOf}."
      },
      "decimals()": {
        "details": "Returns the number of decimals used to get its user representation. For example, if `decimals` equals `2`, a balance of `505` tokens should be displayed to a user as `5.05` (`505 / 10 ** 2`). Tokens usually opt for a value of 18, imitating the relationship between Ether and Wei. This is the default value returned by this function, unless it's overridden. NOTE: This information is only used for _display_ purposes: it in no way affects any of the arithmetic of the contract, including {IERC20-balanceOf} and {IERC20-transfer}."
      },
      "decreaseAllowance(address,uint256)": {
        "details": "Atomically decreases the allowance granted to `spender` by the caller. This is an alternative to {approve} that can be used as a mitigation for problems described in {IERC20-approve}. Emits an {Approval} event indicating the updated allowance. Requirements: - `spender` cannot be the zero address. - `spender` must have allowance for the caller of at least `subtractedValue`."
      },
      "increaseAllowance(address,uint256)": {
        "details": "Atomically increases the allowance granted to `spender` by the caller. This is an alternative to {approve} that can be used as a mitigation for problems described in {IERC20-approve}. Emits an {Approval} event indicating the updated allowance. Requirements: - `spender` cannot be the zero address."
      },
      "name()": {
        "details": "Returns the name of the token."
      },
      "owner()": {
        "details": "Returns the address of the current owner."
      },
      "pendingOwner()": {
        "details": "Returns the address of the pending owner."
      },
      "renounceOwnership()": {
        "details": "Leaves the contract without owner. It will not be possible to call `onlyOwner` functions. Can only be called by the current owner. NOTE: Renouncing ownership will leave the contract without an owner, thereby disabling any functionality that is only available to the owner."
      },
      "symbol()": {
        "details": "Returns the symbol of the token, usually a shorter version of the name."
      },
      "totalSupply()": {
        "details": "See {IERC20-totalSupply}."
      },
      "transfer(address,uint256)": {
        "details": "See {IERC20-transfer}. Requirements: - `to` cannot be the zero address. - the caller must have a balance of at least `amount`."
      },
      "transferFrom(address,address,uint256)": {
        "details": "See {IERC20-transferFrom}. Emits an {Approval} event indicating the updated allowance. This is not required by the EIP. See the note at the beginning of {ERC20}. NOTE: Does not update the allowance if the current allowance is the maximum `uint256`. Requirements: - `from` and `to` cannot be the zero address. - `from` must have a balance of at least `amount`. - the caller must have allowance for ``from``'s tokens of at least `amount`."
      },
      "transferOwnership(address)": {
        "details": "Starts the ownership transfer of the contract to a new account. Replaces the pending transfer if there is one. Can only be called by the current owner."
      }
    },
    "version": 1
  },
  "userdoc": {
    "kind": "user",
    "methods": {},
    "version": 1
  },
  "storageLayout": {
    "storage": [
      {
        "astId": 7,
        "contract": "contracts/YourContract.sol:YourContract",
        "label": "_owner",
        "offset": 0,
        "slot": "0",
        "type": "t_address"
      },
      {
        "astId": 120,
        "contract": "contracts/YourContract.sol:YourContract",
        "label": "_pendingOwner",
        "offset": 0,
        "slot": "1",
        "type": "t_address"
      },
      {
        "astId": 211,
        "contract": "contracts/YourContract.sol:YourContract",
        "label": "_balances",
        "offset": 0,
        "slot": "2",
        "type": "t_mapping(t_address,t_uint256)"
      },
      {
        "astId": 217,
        "contract": "contracts/YourContract.sol:YourContract",
        "label": "_allowances",
        "offset": 0,
        "slot": "3",
        "type": "t_mapping(t_address,t_mapping(t_address,t_uint256))"
      },
      {
        "astId": 219,
        "contract": "contracts/YourContract.sol:YourContract",
        "label": "_totalSupply",
        "offset": 0,
        "slot": "4",
        "type": "t_uint256"
      },
      {
        "astId": 221,
        "contract": "contracts/YourContract.sol:YourContract",
        "label": "_name",
        "offset": 0,
        "slot": "5",
        "type": "t_string_storage"
      },
      {
        "astId": 223,
        "contract": "contracts/YourContract.sol:YourContract",
        "label": "_symbol",
        "offset": 0,
        "slot": "6",
        "type": "t_string_storage"
      },
      {
        "astId": 925,
        "contract": "contracts/YourContract.sol:YourContract",
        "label": "launched",
        "offset": 0,
        "slot": "7",
        "type": "t_bool"
      },
      {
        "astId": 929,
        "contract": "contracts/YourContract.sol:YourContract",
        "label": "isBot",
        "offset": 0,
        "slot": "8",
        "type": "t_mapping(t_address,t_bool)"
      },
      {
        "astId": 933,
        "contract": "contracts/YourContract.sol:YourContract",
        "label": "isExcludedFromLimits",
        "offset": 0,
        "slot": "9",
        "type": "t_mapping(t_address,t_bool)"
      }
    ],
    "types": {
      "t_address": {
        "encoding": "inplace",
        "label": "address",
        "numberOfBytes": "20"
      },
      "t_bool": {
        "encoding": "inplace",
        "label": "bool",
        "numberOfBytes": "1"
      },
      "t_mapping(t_address,t_bool)": {
        "encoding": "mapping",
        "key": "t_address",
        "label": "mapping(address => bool)",
        "numberOfBytes": "32",
        "value": "t_bool"
      },
      "t_mapping(t_address,t_mapping(t_address,t_uint256))": {
        "encoding": "mapping",
        "key": "t_address",
        "label": "mapping(address => mapping(address => uint256))",
        "numberOfBytes": "32",
        "value": "t_mapping(t_address,t_uint256)"
      },
      "t_mapping(t_address,t_uint256)": {
        "encoding": "mapping",
        "key": "t_address",
        "label": "mapping(address => uint256)",
        "numberOfBytes": "32",
        "value": "t_uint256"
      },
      "t_string_storage": {
        "encoding": "bytes",
        "label": "string",
        "numberOfBytes": "32"
      },
      "t_uint256": {
        "encoding": "inplace",
        "label": "uint256",
        "numberOfBytes": "32"
      }
    }
  }
}